:100000000C945A000C9477000C9477000C947700B1
:100010000C9486000C947C000C9477000C94770070
:100020000C9477000C9477000C9477000C949C004F
:100030000C9477000C9477000C9477000C94770064
:100040000C9477000C9477000C9477000C94770054
:100050000C9477000C947D030C9477000C9477003B
:100060000C9490060C9477000C9477000C94770015
:100070000C9477000C9477000C9477000C94770024
:100080000C9477000C9477000C9477000C94770014
:100090000C9477000C9477000C9477000C94770004
:1000A0000C9477000C9477000C9477000C947700F4
:1000B0000C94770011241FBECFEFD8E0DEBFCDBF78
:1000C00012E0A0E0B1E0E4E0F4E102C005900D929E
:1000D000AE32B107D9F722E0AEE2B2E001C01D9224
:1000E000A037B207E1F70E942F010C94000A0C948C
:1000F00000000E94BD0308951F920F920FB60F9249
:1001000011240F900FBE0F901F9018951F920F9201
:100110000FB60F9211248F9382E089B9329904C0EF
:1001200081E08093670202C0109267028F910F9066
:100130000FBE0F901F9018951F920F920FB60F923F
:1001400011248F939F9381E08093650280916302D5
:10015000909164020196909364028093630280916F
:100160006702882331F080915C028F5F80935C028C
:1001700002C010925C0280915C028E3118F0599896
:10018000589841989F918F910F900FBE0F901F909C
:100190001895AF92BF92CF92DF92EF92FF920F939A
:1001A0001F93CF93DF9300D01F92CDB7DEB75C01D2
:1001B00019821B821A82842F90E0809722F480E2B9
:1001C000840F898303C080EE840F8983A981B0E006
:1001D000AA0FBB1FAA0DBB1D0D911C91012E000C77
:1001E000220B330BFB0180819181A281B3816C01D1
:1001F0007D01C01AD10AE20AF30A50E0440F551FEC
:10020000F501E40FF51F80819181092E000CAA0BE6
:10021000BB0B8C0D9D1DAE1DBF1DFB01808391830B
:10022000A283B383689414F8B595A795979587959D
:100230001694D1F79B838A838A819B8189838A81E3
:100240009B810F900F900F90DF91CF911F910F9195
:10025000FF90EF90DF90CF90BF90AF900895CF9335
:10026000DF93CDB7DEB7CC58D1400FB6F894DEBFE0
:100270000FBECDBF80E88E010F5F1F4FD801E82F62
:100280001D92EA95E9F77E01F1E8EF0EF11CD70126
:10029000E82F1D92EA95E9F76E01F1E0CF0EDF1E1F
:1002A000D6011D928A95E9F70E9479000E94C9073C
:1002B0000E94EA070E94D207909358028093570247
:1002C0000E94DA0790936202809361020E94E20723
:1002D00090935E0280935D02F801C701209157025E
:1002E0003091580221933193209161023091620242
:1002F000DC012D933D93CD0120915D0230915E0292
:10030000D6012D933D936D01EE15FF0539F781E080
:10031000809359028091570290915802092E000C47
:10032000AA0BBB0B880F991FAA1FBB1F880F991F11
:10033000AA1FBB1F880F991FAA1FBB1F880F991FD9
:10034000AA1FBB1F880F991FAA1FBB1FCF57DE4FC5
:1003500088839983AA83BB83C158D140809161026D
:1003600090916202092E000CAA0BBB0B880F991FFB
:10037000AA1FBB1F880F991FAA1FBB1F880F991F99
:10038000AA1FBB1F880F991FAA1FBB1F880F991F89
:10039000AA1FBB1FCB57DE4F88839983AA83BB83D9
:1003A000C558D14080915D0290915E02092E000CEB
:1003B000AA0BBB0B880F991FAA1FBB1F880F991F81
:1003C000AA1FBB1F880F991FAA1FBB1F880F991F49
:1003D000AA1FBB1F880F991FAA1FBB1FC757DE4F3D
:1003E00088839983AA83BB83C958D14000E010E079
:1003F000FF24F39480916502882309F450C00E9481
:10040000D2076801CC0CDD1CE1E0F0E0EC0FFD1F31
:10041000EC0DFD1D918380830E94DA07E1E8F0E096
:10042000EC0FFD1FEC0DFD1D918380830E94E20700
:10043000E1E0F1E0EC0FFD1FEC0DFD1D91838083E9
:10044000402FBE016F577E4FCE0101960E94C9001A
:100450009093580280935702402FBE016B577E4FF6
:10046000CE018F579F4F0E94C900909362028093E4
:100470006102402FBE0167577E4FCE018F5F9E4FB6
:100480000E94C90090935E0280935D020F5F1F4F30
:100490000034110510F000E010E010926502809128
:1004A0005602882379F0209106013091070180914E
:1004B000080190910901820F931F90936F0280931E
:1004C0006E0208C0809106019091070190936F021F
:1004D00080936E0220915D0230915E0280916E02E7
:1004E00090916F02919581959109821793070CF075
:1004F000AAC02091040130910501809102019091E0
:100500000301821B930B40915702509158028417AC
:10051000950734F540916102509162028417950766
:10052000FCF0409161025091620280910001909133
:100530000101280F391F4217530794F080916A0276
:1005400081110EC00E9431090E941909F0926A02BD
:10055000109260021092590210925502F0925602C7
:1005600020910401309105018091020190910301D5
:10057000821B930B40916102509162028417950790
:1005800034F5409157025091580284179507FCF0BA
:1005900040915702509158028091000190910101C1
:1005A000280F391F4217530794F080916002811180
:1005B0000EC00E9431090E940D09F0926002109253
:1005C0006A021092590210925502F092560220913E
:1005D0000401309105018091000190910101820F89
:1005E000931F4091610250916202481759070CF025
:1005F00001CF6091570270915802409102015091D1
:100600000301FA01E21BF30BE617F7070CF4F2CE35
:100610002091570230915802281739070CF4EACE7E
:10062000809159028111E6CE0E9431090E943F0952
:100630001092600210926A02F092590210925502D2
:10064000F0925602D7CE80916002811109C080914C
:100650006A02811105C080915902882309F4CACE2B
:10066000809155028111C6CE0E9431090E94250950
:1006700010926A021092600210925902F092550292
:1006800010925602B7CEE4E6F0E080818E7F808340
:1006900080E480937C0081E880937A0010927B0054
:1006A00081E080937E0080E00895ECE7F0E09081A7
:1006B000907F90839081892B8083EAE7F0E08081AE
:1006C00080648083089580917A0082958170089576
:1006D000809178002091790090E0922B08950E94FB
:1006E00055030E9463038823E1F30E946803EAE74D
:1006F000F0E020812061208308951F920F920FB6B1
:100700000F9211242F933F934F935F936F937F9397
:100710008F939F93AF93BF93EF93FF93E0912E023C
:10072000F0912F02309709F00995FF91EF91BF9159
:10073000AF919F918F917F916F915F914F913F9179
:100740002F910F900FBE0F901F90189552985A98A6
:1007500053985B983A9842980E94F0030895409805
:1007600038980E94430308953D9A459845983C9ACD
:10077000449844980E94080608958DE3809365008C
:100780008FEF8093640094B114B895B185B997B197
:10079000907897B998B19F6798B99AB11AB89BB1F8
:1007A0008BB98DB1807F8DB98EB18F608EB9399A3A
:1007B000419A509A589A519A599A40E060E881E6D5
:1007C00090E00E94D30913BE80E185BF78940E9417
:1007D000A6030E94AF030E94B4030E94DA090895A1
:1007E00086E08093680084E080936C008CE08093C6
:1007F0006D0080E0089580E98093BC00E0E3F2E0C2
:1008000080818E7F808313868EE00895E0E3F2E09E
:1008100080818E7F8083138680E00895ECEBF0E08A
:100820008081806A808381E00895ECEBF0E0808134
:10083000806A808382E00895ECEBF0E08081806A3A
:10084000808381E008958091B900887F883041F0ED
:100850008091B900887F803119F00E94FB030895D0
:1008600080913102880F81608093BB00ECEBF0E057
:1008700080818F7D80838081806880838AE0089575
:100880008091B900887F883041F08091B900887FDD
:10089000803119F00E94FB03089580913102880F86
:1008A0008093BB00ECEBF0E080818F7D80838081C2
:1008B000806880838BE00895ECEBF0E08081806AB3
:1008C000808388E00895A0E3B2E082E01B968C93D9
:1008D0001B971E96ED91FC911F975A968D919C91B6
:1008E0005B970995823019F0833021F006C00E9491
:1008F0000E0408950E94150408950E94FB030895B4
:1009000080E98093BC00E0E3F2E080818E7F808309
:1009100082E083878EE0089581E0089585E0089560
:100920006115710581F090E0FC01EE0FFF1FE45CA2
:10093000FD4F71836083880F991FFC01E85BFD4FB9
:1009400051834083089590E0FC01EE0FFF1FE45CAB
:10095000FD4F2CE834E031832083880F991FFC0180
:10096000E85BFD4F118210820895ECEBF0E080818E
:1009700080698083E0E3F2E080818E7F808313864C
:1009800080E008958091B900887F803541F08091A2
:10099000B900887F883519F00E94FB030895809183
:1009A000340290913502029731F4ECEBF0E0808153
:1009B0008F7B808305C0ECEBF0E0808180648083D6
:1009C000E0E3F2E084819581019795838483892B0C
:1009D00089F0A281B3818091BB008C938281938145
:1009E000019693838283ECEBF0E0808180688083C2
:1009F00084E00895A0E3B2E01296ED91FC91139784
:100A00008091BB00808312968D919C9113970196E3
:100A100013969C938E9312978C9184608C931C9662
:100A2000ED91FC911D9758968D919C915997099540
:100A30008250823018F40E945C0408950E94B5042C
:100A40000895ECEBF0E0808180698083E0E3F2E0E0
:100A500080818E7F8083138680E00895A0E3B2E0DA
:100A600082E01B968C931B975096ED91FC915197C9
:100A70005C968D919C915D970995823019F0833039
:100A800021F006C00E940E0408950E9415040895E6
:100A90000E94210508958091B900887F803419F063
:100AA0000E942E050895809134029091350201979D
:100AB00039F4ECEBF0E080818F7B808384E0089553
:100AC000ECEBF0E080818064808384E00895809185
:100AD000B900887F883119F00E942E05089583E0BF
:100AE00008958091B900887F803351F08091B900DA
:100AF000887F883429F08091B900887F8032C9F4DA
:100B0000A0E3B2E05296ED91FC9153975E968D91E1
:100B10009C915F970995823019F0833021F006C0CF
:100B20000E940E0408950E94150408950E94210554
:100B30000895E0E3F2E0A281B381CD0101969383B1
:100B400082838C918093BB00ACEBB0E08C91806889
:100B50008C9384819581019795838483892B11F4EB
:100B600085E0089583E008958091B900887F8033FF
:100B700051F08091B900887F883429F08091B900C4
:100B8000887F8032C9F4A0E3B2E05296ED91FC91E7
:100B900053975E968D919C915F970995823019F0DD
:100BA000833021F006C00E940E0408950E941504AF
:100BB00008950E9421050895A0E3B2E08C9184601D
:100BC0008C931C96ED91FC911D9758968D919C915C
:100BD00059970995833039F0843041F0823049F4D7
:100BE0000E940E0408950E94150408950E94710544
:100BF00008950E9421050895AB01BC0180E00E9488
:100C000090040895AB01BC0182E00E949004089515
:100C1000E4E6F0E080818F77808385E48093BC00F8
:100C200088E38093B8001092B90008959091300243
:100C300091FD31C0E0E3F2E08183892F847F9EE063
:100C4000928724EF31E0318720878260846080833F
:100C50008CE894E095878487118E108E978786871D
:100C6000138E128E918B808B158E148E938B828BAC
:100C7000178E168E8EE894E0958B848B11A210A2AD
:100C8000ECEBF0E080E9808384E880838081816000
:100C9000808380E0089581E008958091300280FD96
:100CA00010C0E0E3F2E08D7F80838FEF8183ACEBB7
:100CB000B0E08C9180688C938C918E7F8C9383852F
:100CC000089581E008959C019091300292FF09C03F
:100CD000E0E3F2E03383228375836483892F8B7F83
:100CE000808308959091300290FD14C0E0E3F2E01B
:100CF00091609083882321F081E080933A0203C0C1
:100D000082E080933A02ECEBF0E08081806A80839D
:100D100080E0089581E0089580E00E9472060895C1
:100D20001F920F920FB60F9211242F933F934F9360
:100D30005F936F937F938F939F93AF93BF93CF9363
:100D4000DF93EF93FF938091B900887F883379F028
:100D50008091B900887F883651F08091B900887FF2
:100D6000883729F08091B900887F803B19F480E1B1
:100D700080933A02C0E3D2E0EA85F0E0EE0FFF1F75
:100D8000E65FFE4F0190F081E02D09958A87FF9183
:100D9000EF91DF91CF91BF91AF919F918F917F9113
:100DA0006F915F914F913F912F910F900FBE0F90D8
:100DB0001F90189561E070E00E94630660E070E0AB
:100DC00080E090E00E94FC0584E0089561E070E01E
:100DD0000E94630660E070E080E090E00E94FC0505
:100DE00082E0089562E070E00E94630660E070E0D7
:100DF00080E090E00E94FC0582E008951F93CF936D
:100E0000DF9300D0CDB7DEB7182F69834A83812FD7
:100E10000E9416068823D9F3BE016E5F7F4F8AEDCC
:100E200096E00E94FC0561E070E0CE0101960E9410
:100E3000630660E070E08BE997E00E9402060E9482
:100E40008C060E944D068130E1F30F900F90DF91E8
:100E5000CF911F910895EF92FF921F93CF93DF934D
:100E600000D0CDB7DEB7182F6A838AE289836894F1
:100E7000EE24E1F8F12C812F0E9416068823D9F385
:100E8000BE016F5F7F4F86EE96E00E94FC0561E039
:100E900070E0CE0102960E94630660E070E08BE98C
:100EA00097E00E9402060E948C060E944D06813047
:100EB000E1F3882321F081E0E81AF108E1F6898165
:100EC0000F900F90DF91CF911F91FF90EF900895B9
:100ED0001F93CF93DF9300D01F92CDB7DEB7182FAB
:100EE0006B83812F0E9416068823D9F3BE016F5FA2
:100EF0007F4F82EF96E00E94FC0561E070E0CE013A
:100F000003960E94630660E070E08BE997E00E9420
:100F100002060E948C060E944D068130E1F3898111
:100F20009A819827892798270F900F900F90DF912B
:100F3000CF911F91089583E0089547E060E289E131
:100F40000E94FE060895CF93C82F60E289E10E94B7
:100F50002B0790E1C99F900111248F70482F422BDD
:100F600060E289E10E94FE06CF910895CF93C82FD9
:100F700063E289E10E942B0790E1C99F900111244F
:100F80008F7C482F422B63E289E10E94FE06CF91BD
:100F900008950E949D0785E00E94A30780E00E94BB
:100FA000B607089568EA89E10E94680798278927AB
:100FB000982708956AEA89E10E9468079827892797
:100FC000982708956CEA89E10E9468079827892785
:100FD00098270895CF93DF931F92CDB7DEB740E4F3
:100FE00060E082E30E94FE0643E066E382E30E9443
:100FF000FE064FE766E382E30E94FE066AE382E3B1
:101000000E942B078072898389818111F7CF6AE35F
:1010100082E30E942B070F90DF91CF910895582F04
:101020008FEF869F9001879F300D1124369527956D
:1010300036952795ABE7B4E10E94F109969587951F
:10104000482F652F82E30E94FE060895CF93DF9319
:101050001F92CDB7DEB76AE382E30E942B0780714F
:10106000898389818111F7CF0F90DF91CF91089506
:10107000CF92DF92EF92FF920F931F93CF93DF9364
:1010800000D0CDB7DEB7603608F061C0C62E7C0157
:1010900040E460E082E30E94FE0640E061E082E31B
:1010A0000E94FE060E94260844E161E082E30E945D
:1010B000FE060E9426081A82C694C694C694C69458
:1010C000C694C6948A81C81608F441C04A816FE468
:1010D00082E30E94FE06D12C0D2D069510E08A8138
:1010E000F80190E1899FE00DF11D1124EE0FFF1F23
:1010F000EE0DFF1D818189830E942608498160E5EC
:101100006D0D82E30E94FE060E9426088A81F80186
:1011100090E1899FE00DF11D1124EE0FFF1FEE0DF0
:10112000FF1D80818983498161E56D0D82E30E9405
:10113000FE060E942608D394D39480E1D812CCCF27
:101140008A818F5F8A838A81C81608F0BFCF0F908B
:101150000F90DF91CF911F910F91FF90EF90DF9053
:10116000CF9008951F93CF93DF931F92CDB7DEB733
:10117000182F60E082E30E942B07898340E460E03F
:1011800082E30E94FE06812F90E00197880F991F4D
:1011900099812FEC3FEF082E02C0359527950A94D0
:1011A000E2F729232983498120E230E0B90102C016
:1011B000759567958A95E2F7CB01842B89834981E0
:1011C00060E082E30E94FE060F90DF91CF911F91B5
:1011D0000895CF93823031F0833031F0813031F493
:1011E000C0E205C0C8E003C0C2E001C0C0E040E00A
:1011F0006CE482E30E94FE0640E067E382E30E9423
:10120000FE0640E061E082E30E94FE064C2F61E0B2
:1012100082E30E94FE06CF91089560E48EEE91E095
:101220000E94380881E00E94B20881E00E94E9082B
:10123000089560E48EEA91E00E94380881E00E94FF
:10124000B20881E00E94E908089560E48EE691E02A
:101250000E94380881E00E94B20881E00E94E908FB
:10126000089560E48EE291E00E94380881E00E94D7
:10127000B20881E00E94E9080E9426080895CF93F1
:10128000DF9300D000D0CDB7DEB70E94310940E433
:1012900060E082E30E94FE0680E00E946F039A8372
:1012A000898380E00E946F039C838B8380E00E948F
:1012B0006F03909369028093680280916802909115
:1012C000690249815A812B813C81240F351F280FE7
:1012D000391FABEABAEA0E94F10996958795909377
:1012E00069028093680262E370E086E10E940F0861
:1012F0008091680290916902823693402CF062E3FB
:1013000070E08EE10E940F0880916802909169025E
:101310008D3493402CF062E370E087E10E940F0867
:1013200080916802909169028C3393402CF062E3C3
:1013300070E08DE10E940F0880916802909169022F
:101340008D3293402CF062E370E08CE10E940F0834
:101350008091680290916902883193402CF062E399
:1013600070E08BE10E940F08809168029091690201
:10137000833093402CF062E370E08AE10E940F0812
:101380008091680290916902883F92402CF062E35C
:1013900070E088E10E940F080F900F900F900F905F
:1013A000DF91CF9108952FB7F894FC0160834083BB
:1013B0002FBF0895E4E6F0E08081877F80838AE094
:1013C0008093810080E49FE190938900809388005E
:1013D00082E080936F00109285001092840080E07C
:1013E0000895A29FB001B39FC001A39F700D811DFE
:1013F0001124911DB29F700D811D1124911D08951E
:04140000F894FFCF8E
:1014040000C00040A00F7017A00F0604230440047E
:101414007105C204B4050E0415041C0421054B0512
:101424006705B5045C04FB032E0563048004109C6B
:10143400909C004002A005000A0005000A00050077
:101444000A0005000A0005000A0005000A00FF0F53
:101454002201730105000A0005000A0005000A00C4
:1014640005000A0005000A0005000A000200109C9D
:10147400909C0F40809D02A00A0005000A000A000B
:1014840005000A0005000A0005000A000A0002001F
:10149400050005000A0005000A0005000A000A000C
:1014A40005000A0005000A0005000A000500109C5A
:1014B400909CFF4000600040006002A00A0005000C
:1014C4000A0005000A0005000A0005000A00F200EF
:1014D40080010200080010002000400080000A0083
:1014E40005000A0005000A0005000A000500109C1A
:1014F400909CFF4000600040006002A00A000500CC
:101504000A0005000A0005000A0005000A00C301DC
:1015140005000A0005000A002000400080000A00BF
:0E15240005000A0005000A0005000A00050087
:00000001FF
